:020000040800F2
:10000000000002208D490008D9490008D94900089C
:10001000D9490008D9490008D94900080000000062
:10002000000000000000000000000000D9490008A6
:10003000D949000800000000D9490008D949000842
:10004000D9490008D9490008D9490008D949000808
:10005000D9490008D9490008D9490008D9490008F8
:10006000D9490008D9490008D9490008D9490008E8
:10007000D9490008D9490008D9490008D9490008D8
:10008000D9490008D9490008D9490008ED310008CC
:10009000F1310008D9490008E1310008D9490008C8
:1000A000D9490008D9490008D9490008D9490008A8
:1000B000D9490008D9490008D9490008D949000898
:1000C000D9490008D9490008D9490008D949000888
:1000D000D9490008D9490008D9490008D949000878
:1000E000D9490008D9490008D9490008D949000868
:1000F000D9490008D9490008D9490008D949000858
:10010000D9490008D9490008D9490008D949000847
:10011000D9490008D9490008D9490008D949000837
:10012000D9490008D9490008D9490008D949000827
:10013000D94900080000000000000000013200085A
:1001400005320008D9490008F5310008D9490008EE
:10015000D9490008D9490008D9490008D9490008F7
:10016000D9490008D9490008D9490008D9490008E7
:10017000D9490008D9490008D94900080000000001
:1001800000000000D9490008000000000000000045
:10019000D94900080000000000000000D94900080B
:1001A000000000000000000000000000D949000825
:1001B000D9490008D9490008D9490008D949000897
:1001C000D949000810B5054C237833B9044B13B155
:1001D0000448AFF300800123237010BD48100020B5
:1001E000000000005484010808B5034B1BB103490B
:1001F0000348AFF3008008BD000000004C10002051
:1002000054840108A3F5803A704700BF174B002BB8
:1002100008BF134B9D46FFF7F5FF00218B460F46A5
:100220001348144A121A08F0B1FF0E4B002B00D0ED
:1002300098470D4B002B00D0984700200021040068
:100240000D000D48002802D00C4803F0E8FB08F030
:1002500059FD2000290003F071FE03F0DDFB00BF13
:1002600000000800000000002D3F000800000220F0
:1002700048100020803100201F3A000800000000D4
:1002800010B5094B036003F1200280330446C0F827
:10029000BC20C0F8C030BC3007F018FE204607F084
:1002A000F3F8204610BD00BFB4770108A0F1BC00F0
:1002B000E6E7A0F1C000E3E708B5104C104911488B
:1002C00007F028FE10490F4807F024FE0F490D489B
:1002D000224607F03CFE0B4807F00AFE22780C4944
:1002E000084807F017FE207800F0FEF8207800F0AC
:1002F000ABFD00F055F900F0CDFDFAE7CC01002090
:1003000054580108201100209A580108B1580108DA
:10031000B458010810B50446FFF7B2FF204603F0B9
:10032000E6FC204610BDA0F1BC00F3E7A0F1C00040
:10033000F0E7000013B5094C4FF416530093032265
:1003400000230221204606F035FC054A05492046D7
:1003500002B0BDE8104003F05DBB00BF6410002098
:10036000C8010020810200080FB407B5064B04AA9B
:100370001B6852F8041BD86801920BF043FA03B0D3
:100380005DF804EB04B070477406002008B5074B15
:100390001A78074B1B789A4205D106481146FFF799
:1003A000E3FF012008BD0020FCE700BFCD010020D5
:1003B000DA120020C1580108024B1870062000F024
:1003C000E5BA00BF3E1100200EB403B5064B03AAE8
:1003D0001B6852F8041BD86801920BF013FA02B0A4
:1003E0005DF804EB03B070477406002038B505468D
:1003F000FFF7CCFF0128044605D105482946FFF741
:10040000B3FF204638BD034B00241D70F9E700BF41
:1004100000590108DA12002070B5104D2A78824286
:10042000044605D203460E490120FFF7CDFF2C7884
:100430000C4E0D482246314608F092FD2A780B4BAF
:10044000121BD2B21C702A702AB13119304608F042
:1004500087FD012070BD1046FCE700BF4011002061
:1004600025590108DB16002041110020D61200207A
:1004700070B5054610460C46FFF7B8FF0128064642
:100480000DD1072000F09EFA48B1072000F09AFA3B
:10049000104902463046BDE87040FFF795BF192C61
:1004A0002246294609D80C4808F05AFD0B4B1C700F
:1004B000BDE87040042000F069BA094808F050FD1A
:1004C000084B1A201C70FFF7A7FF072000F05EFA08
:1004D000EEE700BF8A59010841110020D612002022
:1004E000DB1600204011002010B50A4B0A4C0022F8
:1004F0001A70207000F060FAFFF748FF207800F0D3
:10050000F5FA064801F03EF9BDE81040044801F054
:100510003FB900BFDA120020CD01002071040008AD
:10052000B90300082DE9F0431A4D85B095F8009005
:100530009DF830801F46184B144699440E4600F033
:1005400023FA22460146484608F00AFD2A78134954
:10055000023A2244D2B2434601202A70FFF734FF08
:10056000012F02D0B8F1010F12D12A78039200F0C6
:10057000FDFA029000F0F4FADDE902320090314613
:10058000054801F06DF80020287005B0BDE8F08343
:100590000120FAE73F110020DB120020EA59010890
:1005A0002DE9FF47AD4DAE4C2A7823789A4205D00D
:1005B000AC490120FFF708FF23782B702578012D27
:1005C00000F0D680022D00F0F880002D40F0A181CF
:1005D000062000F0F7F978B1A34B187800F0A2FAE2
:1005E000B0FA80F0400901F0AFF82570062004B0A1
:1005F000BDE8F04700F0D4B9032000F0E3F900288B
:1006000049D000F09DFA074600F0A0FA054600F038
:10061000A1FA804600F0B0FA0646284600F091F9AB
:100620005FFA80F94EBBDFF848A2284600F0AAF92D
:100630009AF80030834220D0284600F0A3F99AF8B7
:10064000002001468948FFF78FFE284600F09AF9FE
:10065000874A1378984208BF431C284608BF137086
:1006600000F090F90146834800F075F981483A4658
:10067000032100F04DFA01230AE0CDF80090334643
:10068000424639462846FFF74DFF002EDDD00023B5
:1006900023700320ABE7042000F094F900282DD04C
:1006A000734D754B2A781B7803920720029300F054
:1006B00089F9B0FA80F04009DDE902326F49009013
:1006C0006F48704E00F04EF96F4B3278187001464B
:1006D0006B4800F01DFA3278FF2A1EBF2B780133D9
:1006E0002B706A4B002119702B786949013B01205E
:1006F000FFF76AFE01232370042078E7072000F04B
:1007000061F9044650B1042000F040F91A20FFF7C7
:1007100083FE002840F0FD80072068E700F052F9D2
:1007200028B15C4922460120FFF74EFE3EE0012041
:1007300000F048F928B1574901221046FFF744FE5E
:1007400025E000F03FF930B1524902220120FFF7C5
:100750003BFE02204BE7052000F034F9002800F0B2
:10076000D8804D4905220120FFF72EFE05203EE7E7
:10077000284600F027F9064658B100F01DFA012876
:1007800003D0052000F01EF900B1022020700120E6
:100790002DE700F017F9002800F0BB80394B1B78DB
:1007A000FF2B05D12846267000F0C0FF00201EE771
:1007B0000223237000F040FAF8E7284600F002F91F
:1007C000054628B300F0C2F905462D4800F0DAF8D6
:1007D0000646284600F0D6F886420BD12F49012064
:1007E000FFF7F2FD00F0DCF900230120237000F098
:1007F0009DFFAEE7224800F0C5F80290284600F0C1
:10080000C1F8029A264903460120FFF7DDFDA0E763
:10081000052000F0D7F8002848D01C4E3378092B6B
:100820000BD9174800F0AEF801461E48FFF79CFDB3
:100830002846257000F07AFF98E71B490120FFF752
:10084000C3FD104B0E481A780F4B197800F060F971
:100850003378013333700123237087E73D11002083
:100860003C110020155A01083E1100203A5A010897
:10087000D712002009120020D612002041110020BA
:100880000E120020DA120020D8120020D912002007
:10089000865A0108A35A0108A75A0108D95A010823
:1008A000FB5A0108375B0108755B0108032000F063
:1008B00089F8054600B300F043F9074600F046F911
:1008C000054600F047F9814600F056F906462846ED
:1008D00000F037F85FFA80F826B1CDF80080334693
:1008E0004A46CEE6DFF834A0284600F04BF89AF8E6
:1008F00000308342F1D09FE600F064F810B1064961
:100900002A4610E7012000F05DF810B102490122EB
:1009100013E704B0BDE8F0878F5B0108D712002011
:10092000024B1A78024B1A70704700BF3C1100202E
:100930003D1100200078013801288CBF00200120E3
:1009400070470078431E5842584170470078B0FA0B
:1009500080F04009704700230370012341708370C9
:100960000320704710B51C469DF808304270012BDB
:1009700018BF022303702246023008F0F1FAA01CCF
:10098000C0B210BD4078704702307047034A01235F
:1009900003FA00F01368184310607047DC1A002057
:1009A000044901220B6802FA00F023EA00030B60FD
:1009B000704700BFDC1A0020014B00221A6070470C
:1009C000DC1A0020012303FA00F0024B1B681840D8
:1009D000704700BFDC1A0020054B1B785A1E012A05
:1009E00002D80020FFF7D2BF0BB90120FAE7704709
:1009F000E11A00200EB403B5064B03AA1B6852F897
:100A0000041BD86801920AF0FDFE02B05DF804EB09
:100A100003B0704774060020F7B501931E460B78AB
:100A20000093074613460C4615461E490246012010
:100A3000FFF7E0FF08F02EFC07EE900AFAEEE07AEE
:100A4000F5EEC07AF1EE10FA22DD2A46214616486C
:100A500008F086FA154B1F70154B1D7002F0E0FA76
:100A6000144B187002F0D6FA134B1880134B204623
:100A70001E70FFF75FFF28B1032003B0BDE8F04010
:100A8000FFF784BF2046FFF761FF40B10220F4E783
:100A90000B49012003B0BDE8F040FFF7ABBF03B046
:100AA000F0BD00BFC45B0108E41A0020E31A002077
:100AB000181B0020E21A0020161B0020E01A00205C
:100AC000FD5B01080FB407B5064B07491B6805AA73
:100AD000D86801920AF096FE03B05DF804EB04B00A
:100AE000704700BF740600200C5C010810B5044676
:100AF000002007F0D3F808F0C5FB2046024A03495E
:100B0000BDE8104002F028BA190A0008D909000807
:100B100010B5044602F042FA014B22781A7010BD5B
:100B2000E11A002010B502F081FA044618B101461E
:100B30000248FFF7C7FF204610BD00BF0C5C01084C
:100B4000014B1878704700BFE31A00200048704737
:100B5000E41A0020014B1878704700BF181B0020D2
:100B6000014BB3F900007047161B0020014B93F9AD
:100B700000007047E21A0020014B1878704700BF50
:100B8000E01A0020036818470B680360704770473D
:100B9000024B002205201A70FFF7F8BE191B002037
:100BA00008B5034805F053FF024B00221A7008BD38
:100BB000201B0020191B0020014B1878704700BF34
:100BC000191B0020C36810B504460BB19B689847F9
:100BD000204610BD38B50546064B45F8283B04466F
:100BE00005F035FF2846FFF7EDFF204605F0FAFE39
:100BF000204638BD0877010810B50446FFF7EAFF24
:100C0000204603F074F8204610BD000010B5034BD9
:100C100003600446FFF7DEFF204610BD7C77010825
:100C200038B5CB6804460D460BB15B689847EB6856
:100C3000E360204638BD000030B589B008F02AFBDB
:100C4000102204460021684608F0A0FA204B0093C9
:100C50006946204B039304A8FFF7E2FF032094FBAF
:100C6000F0F000EB4000241A0234E4B207EE904AA0
:100C70009FED197AF8EE677A67EE877A17EE900A99
:100C800013F0DCFD05460C4606F04CFC134B5A6B8A
:100C900022B993F838300BB106F0EEF91048FFF79F
:100CA00091FF04A90E48FFF7BBFF2A4623460B48D5
:100CB00005F0B5FE06F04CFC04A8FFF783FF68467C
:100CC000FFF780FF074B01221A7009B030BD00BF4B
:100CD000910B0008405C010800247449201B00208F
:100CE000481B0020191B002010B50446FFF78EFF9B
:100CF000204602F0FCFF204610BD000010B50C4C51
:100D0000204605F047FE20460A4B40F8283B1022BB
:100D1000002108F03BFA012384F83830064B2360A9
:100D20002046064A0649BDE8104002F073BE00BFE7
:100D3000201B0020087701087C770108C8010020EB
:100D40000D0C000838B52348234D07F0D1F82B7857
:100D5000C4B2F3B9042000F067FCD0B91F4D20499C
:100D60002A780A2C02F10103DBB22CD100248C5426
:100D70001B482B7007F04EF91A4B1B491870C2B272
:100D800014482C7007F0C6F80420BDE8384000F085
:100D900035BC2B78022B1AD1122000F045FCB0B9DB
:100DA000124913480A78531CDBB20A2C0B7001D08D
:100DB0000D2C0DD1002383540E490D4A054807F030
:100DC000A9F81220E1E70D2CD0D08C542B7038BD3F
:100DD0008454FCE730200020601B0020681F0020A6
:100DE000691F0020552400204C5C01085424002079
:100DF000621B00205D5C01080EB403B5064B074979
:100E00001B6804AAD86801920AF0FCFC02B05DF8E5
:100E100004EB03B0704700BF74060020695C010852
:100E20000FB407B5064B07491B6805AAD86801929D
:100E30000AF0E8FC03B05DF804EB04B0704700BFB3
:100E4000740600208E5C01081FB510220021684640
:100E500008F09CF90A4B00930A480B4B03930022BD
:100E6000694606F0D7FA039B13B19B68684698471A
:100E70000649074805B05DF804EB07F04BB800BF22
:100E8000450D0008741F0020405C0108105D01083A
:100E9000302000202DE9F043A14DA24C2A78237880
:100EA0009A4285B005D0A0490120FFF7A5FF23781D
:100EB0002B702378032B00F2B881DFE813F00400D5
:100EC0009400B9010301022000F0AEFB0646C8B150
:100ED00000F052FC954E964930709648964D07F0BA
:100EE00019F80122337895482B70114600F062FB07
:100EF000934B2A781B68914803219847012323705C
:100F0000022083E0042000F08FFBE8B18B4D3146D6
:100F10000122284600F04EFBAB780193864E6B7899
:100F200000932B7832788749824806F0F3FF844B90
:100F300032781B680321284698477C4B32781A7018
:100F400001232370042061E0092000F06DFB20B133
:100F50007D49784806F0DEFF57E00A2000F064FB88
:100F600028B17A49734806F0D5FF0A204EE00B20DD
:100F700000F05AFB28B176496E4806F0CBFF0B20F3
:100F800044E0122000F050FB28B17249694806F095
:100F9000C1FF12203AE0112000F046FB28B16E4953
:100FA000644806F0B7FF112030E0122000F03CFB4F
:100FB00008B16A49EAE70E2000F036FB002800F08D
:100FC0002E8267495B4806F0A5FF0E201EE00D202B
:100FD00000F02AFB002800F028816249554806F0FD
:100FE00099FF0D2012E0092000F01EFB054630B3EA
:100FF00000F0C2FB5C4B18704C4B1B7898420246C9
:1010000009D05A494B4806F085FF092005B0BDE8D4
:10101000F04300F0FDBA5649464806F07BFF012236
:101020000221464800F0C6FA454B434A1B68127835
:1010300042480321984702234E49237089E70A203A
:1010400000F0F2FAA0B100F097FB474B1870374B55
:101050001B78834206D04849364805B0BDE8F043C6
:1010600006F058BF4549334806F054FF25707CE729
:101070000B2000F0D9FA88B100F07EFB3A4B1870D3
:101080002A4B1B788342E6D13D492A4806F042FFAD
:1010900000F0CAFB02233B4923706DE7042000F0F7
:1010A000C3FA20B13849234806F034FF4AE702204A
:1010B00000F0BAFA00283FF464AF34491D4806F046
:1010C00029FF1DE70D2000F0AFFA0546A0B1304919
:1010D000184806F01FFF00F04FFB234B1870134B0E
:1010E0001B78834201D0244978E72A49114806F049
:1010F00011FF0023237074E70C2000F095FA0028FC
:101100005DD025490B4806F005FF00F035FB164B76
:101110001870064B1B78834240D0174986E100BF08
:10112000611B0020601B0020695C01085324002023
:101130002E5D010830200020552400205624002078
:10114000642400205B5D010898760108B25801080C
:10115000455F0108895D01086D7701088B5D010815
:101160008D5D01087B7801085C240020915D0108F9
:10117000C75D0108E25D0108F65D0108FB5D01083D
:10118000155E0108255E010871720108505E0108B4
:10119000525E0108645E0108865E0108A649A74800
:1011A00006F0B8FE0221A64800F00AFAA54BA64AAE
:1011B0001B681278A24803219847257039E1042062
:1011C00000F032FA00287FF46DAF022000F02CFA14
:1011D00000287FF472AF092000F026FA00287FF47F
:1011E000B7AE0A2000F020FA00287FF4BAAE0B2038
:1011F00000F01AFA00287FF4BEAE122000F014FAB4
:1012000000287FF4C2AE112000F00EFA00287FF40F
:10121000C6AE122000F008FA00287FF4CAAE0E20F5
:1012200000F002FA00287FF4CCAE05B0BDE8F083F0
:101230000E2000F0F9F9D0B100F09EFA834B18703F
:10124000834B1B7883427FF406AF00217C4800F07B
:10125000B7F97C4B7C4A1B68127879480321984780
:101260007C49764806F056FE03232370ADE60F2036
:1012700000F0DAF90646F8B100F07EFA734B187008
:10128000734B1B7883427FF4E6AE73496B4806F0DC
:1012900041FE01216A4800F093F96A4B6A4A1B68D3
:1012A00012786748032198476C49644806F032FE7B
:1012B000032323700F20A9E6022000F0B5F90546AC
:1012C000E0B100F059FA624B604C1B782070834209
:1012D00012D06349594806F01DFE00F04DFA32461F
:1012E0000121574800F066F9564B22781B68544894
:1012F000032198475B49E1E65B49DFE6122000F0F5
:1013000093F900284ED000F037FA504E307000F0BC
:1013100029FA4F4B32781B78544E9A42044614D027
:101320005349464806F0F6FD204600F0DFF83378D2
:1013300003902046029300F0D7F8DDE902320090D6
:101340004C493E4806F0E6FD23E64B4F4B493A78C0
:101350004B48DFF84491DFF8F08000F03FF9394B5B
:1013600098F800201B6889F8000001464448984717
:1013700098F80020434999F80030304806F0CAFD3B
:10138000204600F0B3F8337803902046029300F033
:10139000ABF8DDE9023200903B49284806F0BAFD7F
:1013A0003D70C1E7112000F03FF9D0B100F0DAF94B
:1013B000044600F0DBF9029000F0DEF9234D2870BE
:1013C000204600F019F9224B029A1B780146287832
:1013D000984201D02649E3E52C48FFF721FD2C492E
:1013E000DEE5042000F020F900287FF45BAE022047
:1013F00000F01AF900287FF460AE092000F014F91B
:1014000000287FF4A5AD0A2000F00EF900287FF433
:10141000A8AD0B2000F008F900287FF4ACAD0C203B
:1014200000F002F900283FF4D2AD1A49034806F053
:1014300071FD0C20EAE500BF975E01083020002016
:101440005624002064240020552400205C24002021
:1014500053240020BB5E0108D45E0108EC5E010845
:10146000195F0108285F0108355F01085224002038
:10147000F65D01080260010854240020621B002070
:101480004C200020475F0108695F01088E5C01085D
:10149000956001088F5D01085B24002013B50C4B9B
:1014A0000C4C1A780C4B1A704FF41653009303220D
:1014B00000230221204605F07DFB084A084920460A
:1014C00002F0A8FA00F052F9064B187002B010BDF5
:1014D000601B0020741F0020611B0020C801002039
:1014E0008102000852240020407870470230704783
:1014F0000378012B06D1437823B98078431E5842E4
:1015000058417047002070470378012B07D143787A
:10151000012B04D18078431E584258417047002067
:1015200070470378012B07D14378012B04D18078D1
:10153000B0FA80F040097047002070470378012B13
:1015400007D14378022B04D18078431E584258417A
:101550007047002070470378022B06D1437823B9E7
:101560008078431E584258417047002070470378E6
:10157000022B07D14378012B04D18078431E5842B7
:1015800058417047002070470378022B07D14378F9
:10159000022B04D18078431E5842584170470020E6
:1015A0007047037823B94078031F58425841704769
:1015B0000020704701230370417082700320704740
:1015C00008B502230370012341708370024807F0BD
:1015D00045FE032008BD00BFB760010810B5002319
:1015E000037004234370012314468370033007F013
:1015F000B7FCE01CC0B210BD03307047034A0123A2
:1016000003FA00F01368184310607047602400204C
:10161000044901220B6802FA00F023EA00030B6080
:10162000704700BF60240020012303FA00F0024B42
:101630001B681840704700BF602400200EB403B53B
:10164000064B03AA1B6852F8041BD86801920AF0E3
:10165000D9F802B05DF804EB03B0704774060020BF
:101660002DE9F043044689B00378477890F802806A
:1016700090F80390079315460E46FFF792FF6278A5
:1016800005922278079B25490097CDE90302CDE911
:1016900001892A460120FFF7D1FF21482A46214629
:1016A00007F05EFC1F4B1D701F4B20461E70FFF79E
:1016B0001FFF28B1022009B0BDE8F043FFF79EBF2D
:1016C0002046FFF721FF08B10920F4E72046FFF785
:1016D00028FF08B10A20EEE72046FFF72FFF08B1E8
:1016E0000B20E8E72046FFF736FF08B10F20E2E7BE
:1016F0002046FFF73CFF08B10C20DCE72046FFF74F
:1017000043FF08B10D20D6E72046FFF74AFF08B196
:101710001120D0E709B0BDE8F08300BFC560010823
:101720006C2400206C2800206D28002008B502469B
:1017300004490120FFF782FFBDE808400520FFF7BC
:101740005DBF00BF2861010808B5024604490120B9
:10175000FFF774FFBDE808400620FFF74FBF00BF4A
:1017600043610108004870476C240020014B187841
:10177000704700BF6C280020014B1878704700BFED
:101780006D280020014B1860704700BF64240020C2
:10179000014B1860704700BF6824002008B50E2078
:1017A000FFF72CFF034807F059FD034B00221A7086
:1017B00008BD00BF686101086E280020F0B52DED5E
:1017C000028B85B00446684608EE102AFFF728FA17
:1017D000DFED147A68EE277A17EE900A13F02EF8F0
:1017E00006460D4605F09EFE636B23B994F838302B
:1017F0000BB105F041FC04F128073846FFF7E2F988
:1018000069463846FFF70CFA32462B46204605F06B
:1018100006F905F09DFE6846FFF7D4F905B0BDEC6A
:10182000028BF0BD002474491FB5102200216846C8
:1018300007F0ACFC084B094A00936946084B09487D
:101840000393FFF7BBFF6846FFF7BCF9064B012285
:101850001A7005B05DF804FB9D1700080000F04108
:10186000405C0108702800206E28002010B50C4C48
:10187000204605F08FF820460A4B40F8283B1022FE
:10188000002107F083FC012384F83830064B2360E5
:101890002046064A0649BDE8104002F0BBB800BF2A
:1018A00070280020087701087C770108C801002013
:1018B0000D0C00080FB407B5064B04AA1B6852F8BC
:1018C000041BD868019209F09DFF03B05DF804EB9A
:1018D00004B0704774060020002000F05BBF0000D9
:1018E0002DE9F041BDF81C50B5F5806F06460C4659
:1018F00090461F4606D322482946FFF7DBFF062005
:10190000BDE8F081022000F0A1FC08B10720F7E754
:101910003146022000F0F6FC4FFA88F1022000F078
:101920002DFD3946022000F047FD0699022000F007
:1019300061FD2146022000F0C7FC8EB90B3C012C52
:1019400012D80121022000F0A1FC7DB90121022062
:1019500000F06EFD00F0D6FD0130D7D00020CFE7BB
:10196000012E01D10C2CECD00021EBE7002102204C
:1019700000F05EFD2946022000F078FDEAE700BF96
:101980007B6101087047000084B038B504AC84E87E
:101990000F000220DDE9085400F058FC20B10720B8
:1019A000BDE8384004B070470C2C15D921461148C9
:1019B000FFF780FF0C21022000F086FCA5B90B3C4C
:1019C000012C15D80121022000F060FC00F09AFDE6
:1019D0000130E4D00020E3E7052CEFD8214605488C
:1019E000FFF768FF0621E6E7012D01D10C2CE9D0B5
:1019F0000021E8E70B6201080FB407B5064B074961
:101A00001B6805AAD868019209F0FCFE03B05DF8D6
:101A100004EB04B0704700BF740600203462010874
:101A200084B010B502AC84E80F009DF80D100129B8
:101A300005D0BDE81040254804B0FFF7DDBF9DF894
:101A4000293033205BB301F009F840F04101C9B2FD
:101A5000332000F0F8FF19213B2000F0F4FF9DF83F
:101A600027309DF82A402BB31D21112000F0EBFFF9
:101A7000402000F0F3FF00F03301402000F0E3FFCE
:101A800000210F2000F0DFFF00210D2000F0DBFF20
:101A9000D4B10520BDE8104004B001F015B800F045
:101AA000DDFF00F0BE0141F00101332000F0CBFF6B
:101AB0001D21D1E71F21112000F0C5FF402000F0BB
:101AC000CDFF00F03F01D8E70620E3E734620108CC
:101AD00084B02DE9F04106AC84E80F000898BDF809
:101AE00032609DF83450BDF842700B9CDDF82880C0
:101AF00000F0CAFF1D2000F0B1FF9DF831309DF8C5
:101B0000301041EAC3019DF8363041EA881141EABC
:101B1000430141EA8501C9B21D2000F094FF1E2057
:101B200000F09CFFC7F3012100F00C0041EA041112
:101B30000143C9B21E2000F086FFF9B21F2000F059
:101B400082FF310A202000F07EFFF1B2212000F058
:101B50007AFF25B19DF83510222000F074FF9DF822
:101B600037306BB14B2000F079FF60F07F01C9B2D4
:101B70004B2000F068FF9DF83810242000F063FF30
:101B8000062C4FF031000FD100F068FF00F0F80193
:101B900041F00501312000F056FF0C21BDE8F04175
:101BA000372004B000F04FBF00F058FF00F0F801FC
:101BB00041F00301312000F046FF0A21EEE78021C9
:101BC000122000F040BF4021122000F03CBF07B5BA
:101BD000122000F043FF8DF807009DF80700C0F3C6
:101BE000401003B05DF804FB2021122000F02BBF51
:101BF00008B5192000F032FF030643BF4042C0F38E
:101C00008500404240F3870008BD84B010B502ACA7
:101C100084E80F009DF938401A2000F01FFF002CC7
:101C2000B8BF8B3C4FEA2013B8BF0019BDE8104085
:101C3000A8BF8B38184400B204B0704738B50546C9
:101C4000132000F00BFF04460146284600F016FF63
:101C5000204638BD0FB407B5064B04AA1B6852F8DE
:101C6000041BD868019209F0CDFD03B05DF804EBC8
:101C700004B070477406002008B528B90848FFF77B
:101C8000E9FF4FF0FF3008BD402905D90548FFF7AF
:101C9000E1FF6FF00100F6E7BDE8084000F0CEBDBF
:101CA000736201089F620108F8B5074601200D46DE
:101CB00014461E4600F0CAFA08B10720F8BD39469E
:101CC000012000F03DFB2946012000F01BFB71B212
:101CD000012000F053FBBDF81810012000F06CFB50
:101CE0000799012000F086FB2146012000F0ECFA64
:101CF00065B90B3C012C0DD80121012000F0C6FA7A
:101D000000F0D2FB0130D8D00020D7E7012D01D15F
:101D10000C2CF1D00021F0E784B038B504AC84E895
:101D20000F000120DDE9085400F090FA20B10720EF
:101D3000BDE8384004B070479DF91C0000F010FC6D
:101D400050BB012000F082FA0028F0D10C2C15D9EC
:101D500021461248FFF77EFF0C21012000F0B4FA63
:101D6000A5B90B3C012C15D80121012000F08EFAF9
:101D700000F09AFB0130DAD00020D9E7052CEFD82B
:101D800021460648FFF766FF0621E6E7012D01D14F
:101D90000C2CE9D00021E8E70120C9E70B6201081B
:101DA0000FB407B5064B07491B6805AAD86801920E
:101DB00009F028FD03B05DF804EB04B0704700BFE4
:101DC00074060020D962010884B070B504AC84E8C0
:101DD0000F0009209DF9404000F040FE06465A20C1
:101DE00000F03CFE9DF8103003F0FD03012B14BF02
:101DF00000238023054606F07F001843030600F009
:101E0000F00127D5112CCBBF45F0070505F0F805EB
:101E1000EDB245F0040505F00703072B12D1142C91
:101E2000A8BF1424052CB8BF0524631F1943C9B2E9
:101E3000092000F008FE2946BDE870405A2004B091
:101E400000F001BE112CA8BF1124022CB8BF02243F
:101E5000A31EEBE70E2CA8BF0E2444EAE474013461
:101E60002143E4E784B008B50DF1080C8CE80F00BD
:101E70009DF80D10012905D0BDE80840124804B0B6
:101E8000FFF78EBF9DF827309BB1F521112000F0A0
:101E9000DAFD402000F0E2FD00F03301402041F087
:101EA000400100F0D0FDBDE80840032004B000F080
:101EB0000BBEF721112000F0C6FD402000F0CEFD42
:101EC00000F03F01EAE700BFD962010884B02DE9C4
:101ED000F0418AB010AC84E80F009DF94C300893B3
:101EE00014AD0FCD6C46159EBDF85A70DDF85080CC
:101EF0000FC495E80F0084E80F0010AB0FCBFFF77D
:101F000063FF129800F0C0FD9DF85F306BB14B206D
:101F100000F0A4FD60F07F01C9B24B2000F093FDFA
:101F20009DF86010242000F08EFD1D2000F096FD2D
:101F30009DF859309DF8581041EAC3019DF85C3076
:101F400041EA881141EA83019DF85E3041EA43018C
:101F5000C9B21D2000F077FD1E2000F07FFD00F0CB
:101F60000F0141EA0611C9B21E2000F06CFD390ACA
:101F7000202000F068FD2120F9B200F064FD062E5B
:101F80004FF0310010D100F069FD00F0F80141F090
:101F90000501312000F057FD0C2137200AB0BDE8C3
:101FA000F04104B000F04FBD00F058FD00F0F80122
:101FB00041F00301312000F046FD0A21EDE7082140
:101FC000122000F040BD08B568B1332000F046FD96
:101FD00000F0BE01332000F036FD19213B20BDE8A2
:101FE000084000F030BD332000F038FD00F0BE01A5
:101FF00041F00101332000F026FD1D21EEE738B548
:10200000044622200D4600F01EFD00210E2000F0A7
:102010001AFD00210D2000F016FD012000F01EFD2C
:1020200030F0F80304D100F07DFD012005F02AFD19
:1020300029462046BDE8384000F01BBD0FB407B567
:10204000064B04AA1B6852F8041BD868019209F0D9
:10205000D9FB03B05DF804EB04B0704774060020B0
:1020600010B50A4C21788142024605D00848FFF796
:10207000E5FF4FF0FF3004E0022001F001F808B95D
:10208000207010BD0348FFF7D9FFF2E72829002090
:102090000D6B0108636B010808B5044804F0D7FC18
:1020A00000F043FD024B01221A7108BDB828002040
:1020B000F828002013B5174C2379022B03D0032BEB
:1020C00019D002B010BDFFF75DFCFFF7E5FF03205C
:1020D00000F0D6FF012808D000230F4A00931468AF
:1020E00019461A460120A047EBE70C4802B0BDE8AC
:1020F0001040FFF7A3BF204600F05AFD94F82800D7
:1021000000F047FD0123237102B0BDE8104000F04C
:10211000E7BF00BFF82800202C290020E36A01084F
:102120002DE9F041354C267988B046B13448314626
:10213000FFF784FF4FF0FF3008B0BDE8F081314B6E
:102140001860314B31481960FFF778FF4FF4807009
:1021500006F0A4FE2E4B186028B92E48FFF76EFF3C
:102160006FF00100E8E74FF4FA6262620E22227318
:102170000B22294B626108224FF00108A3606283A1
:1021800004230522204684F820306285237084F8D9
:1021900005802677E67784F81E8084F82160266122
:1021A00084F81980667784F8228084F8288000F00B
:1021B000FFFC2546014605F8100B1848FFF73EFFC7
:1021C0000FCD6F460FC795E80F0087E80F0094E822
:1021D0000F00FFF7A1FDA5F1100CBCE80F006F4642
:1021E0000FC795E80F0087E80F0094E80F00FFF78E
:1021F000CBFB84F8048030469EE700BFF82800201F
:10220000DA630108302900202C2900202B64010802
:10221000B0280020586401082021F6369264010895
:1022200008B5042000F02CFF012805D10648FFF76F
:1022300005FF4FF0FF3008BDFFF72EFF022000F032
:102240001FFF0020F7E700BFA864010838B5054666
:1022500018B90A48FFF7F2FE05E0094C217829B1C8
:102260000848FFF7EBFE4FF0FF3004E0084600F0AF
:1022700007FF08B9257038BD0348EBE7B8680108C7
:1022800028290020F56801083869010838B5044696
:102290000D4600F01FFF0128084B06D11A78A24214
:1022A00003D1074B00201D7638BD06481A78214619
:1022B000FFF7C4FE4FF0FF30F6E700BF28290020EB
:1022C000F82800205968010838B504460D4600F08A
:1022D00001FF0128084B06D11A78A24203D1074B0F
:1022E00000205D6138BD06481A782146FFF7A6FE3A
:1022F0004FF0FF30F6E700BF28290020F828002023
:10230000FA67010838B504460D4600F0E3FE0128DF
:10231000084B06D11A78A24203D1074B00201D6159
:1023200038BD06481A782146FFF788FE4FF0FF3087
:10233000F6E700BF28290020F82800206C69010872
:1023400038B504460D4600F0C5FE0128084B06D1FD
:102350001A78A24203D1074B00201D7338BD0648EE
:102360001A782146FFF76AFE4FF0FF30F6E700BF0C
:1023700028290020F82800207E66010838B5044688
:102380000D4600F0A7FE0128084B06D11A78A2429C
:1023900003D1074B00205D7638BD06481A782146E8
:1023A000FFF74CFE4FF0FF30F6E700BF2829002072
:1023B000F82800209B67010838B504460D4600F058
:1023C00089FE0128084B06D11A78A24203D1074B97
:1023D00000205D8338BD06481A782146FFF72EFE9F
:1023E0004FF0FF30F6E700BF28290020F828002032
:1023F000C569010838B504460D4600F06BFE01289A
:10240000084B06D11A78A24203D1074B00209D60E9
:1024100038BD06481A782146FFF710FE4FF0FF300E
:10242000F6E700BF28290020F8280020856A010867
:1024300038B504460D4600F04DFE0128084B07D183
:102440001A78A24204D1074B002083F8225038BDED
:1024500005481A782146FFF7F1FD4FF0FF30F6E707
:1024600028290020F8280020276A010838B50446EA
:102470000D4600F02FFE0128084B06D11A78A24223
:1024800003D1074B00205D8538BD06481A782146E8
:10249000FFF7D4FD4FF0FF30F6E700BF28290020FA
:1024A000F82800203E670108F0B589B000F012FE60
:1024B0000128114B18D11F78012F15D10F4E06F1AD
:1024C000100500F035FB0FCD6C460FC495E80F00EA
:1024D00084E80F0096E80F00FFF7F8FC3846FFF796
:1024E000BFFD002009B0F0BD05481978FFF7A6FD33
:1024F0004FF0FF30F6E700BF28290020F828002021
:102500001A660108F0B589B000F0E4FD0128114B0E
:1025100018D11F78022F15D10F4E06F1100500F0CB
:1025200007FB0FCD6C460FC495E80F0084E80F0041
:1025300096E80F00FFF7CCFA3846FFF791FD002030
:1025400009B0F0BD05481978FFF778FD4FF0FF306E
:10255000F6E700BF28290020F8280020B66501080A
:10256000F0B58BB0044600F0B5FD0128104B17D133
:102570001F78012F14D10F4E089406F110050FCDCE
:102580006C460FC495E80F0084E80F0096E80F0032
:10259000FFF71AFC3846FFF763FD00200BB0F0BDD3
:1025A00005481978FFF74AFD4FF0FF30F6E700BF06
:1025B00028290020F8280020DA6601080E4B1B7934
:1025C000022B13B510D1FFF7FAFAFFF765FD0320D0
:1025D00000F056FD012809D00023084A0093146832
:1025E00019461A460120A04702B010BD044802B0A7
:1025F000BDE81040FFF722BDF82800202C2900205C
:10260000D06401082DE9F041454E3479022C8AB09E
:1026100067D1FFF7D8FAFFF7DAFA012829D1FFF7D7
:10262000E3FA96F82250ADB9FFF736FD032000F02B
:1026300027FD012808D03B4B00951E682A462B46F3
:1026400029462046B04711E037480AB0BDE8F041BE
:10265000FFF7F4BC00F03EFD0328F5D10023314A1A
:102660000093156819461A462046A8470AB0BDE8E7
:10267000F081FFF7BDFA06F11005089007460FCD6F
:102680006C460FC495E80F0084E80F0096E80F0031
:10269000FFF7BBFA254C80462068FFF7CFFA96F883
:1026A000226005468EB9FFF7F7FC032000F0E8FC36
:1026B000012808D01B4B00971F68216843462A4613
:1026C0003046B847D2E71A48BFE700F003FD0328B9
:1026D000F9D1144B00971E68216843462A46002012
:1026E000B0E7032C14D1134804F0B1F9FFF767FCED
:1026F000FFF7D2FC204600F0C3FC012806D00E4BA9
:102700001B6800200AB0BDE8F04118470B489CE761
:102710000B4821460AB0BDE8F041FFF78FBC00BF6F
:10272000F82800202C29002013630108B02800207D
:102730004F630108B8280020302900208A6301086F
:10274000BE6301082DE97043044699460D46904644
:1027500004F0E8FE636B23B994F838300BB104F051
:102760008BFC04F12806AE420BD03046FEF72AFA65
:102770003EB1EB681BB15B68294630469847EB6871
:10278000636342464B46204604F049F9BDE8704376
:1027900004F0DEBEF0B506468DB0012000F070FCFE
:1027A000012806D11E48FFF749FC4FF0FF300DB05D
:1027B000F0BD1C4B1C4F18684FF48072002107F1CC
:1027C000100506F0E3FC0FCD6C460FC495E80F0032
:1027D00084E80F0097E80F00FFF722F902233B710E
:1027E000E6B11022002108A806F0D0FC0F4B089398
:1027F00030460F4B0B9311F02FFC00220D4B11F0C4
:10280000A5FC12F03BF802460B460B4808A9FFF75F
:1028100099FF08A8FEF7D6F90020C8E73046C6E7BA
:10282000FF640108B0280020F8280020B520000827
:10283000405C010800408F40B8280020F0B5304CC3
:102840002379032B8FB006460D4606D12D48FFF79E
:10285000F5FB4FF0FF300FB0F0BD042000F010FC8E
:102860000128F3D0FFF718FC0A2005F00BF902202D
:1028700000F006FC012000F003FC012801D12248F1
:10288000E5E763791BB1012B03D000270CE01F485B
:10289000DDE794F82100FFF796FB2946304684F8DF
:1028A0002E50FFF7ACFB676A194E08970FCE6D46A6
:1028B0000FC596E80F0085E80F0094E80F00FFF7BA
:1028C000D1FA0323102200210AA8237106F05EFC2E
:1028D000104B0A933846104B0D9311F0BDFB0022AC
:1028E0000E4B11F033FC11F0C9FF02460B460C48A9
:1028F0000AA9FFF727FF0AA8FEF764F90020AAE754
:10290000F828002026650108566501087D65010844
:1029100008290020B5200008405C010800408F40D5
:10292000B828002010B50C4C204604F033F820469F
:102930000A4B40F8283B1022002106F027FC012317
:1029400084F83830064B23602046064A0649BDE825
:10295000104001F05FB800BFB828002008770108D8
:102960007C770108C80100200D0C000810B5044652
:10297000044B40F8B83BD4F8C4300BB19B6898477F
:10298000204610BD987801080FB407B5064B0749DB
:102990001B6805AAD868019208F034FF03B05DF8FF
:1029A00004EB04B0704700BF74060020C66B01083A
:1029B000F8B50D4C0D4F23681646E2681B040D4612
:1029C000136040F08001094804F084FA013D2E4470
:1029D000B54205D015F8011F384604F07BFAF7E739
:1029E000A36822681A60F8BDF0290020282A002078
:1029F000F8B50E4C0E4F23681646E2681B040D46D0
:102A0000136000F07F010A4804F064FA013D2E448F
:102A1000B54206D00021384604F05CFA05F8010FF3
:102A2000F6E7A36822681A60F8BD00BFF02900200D
:102A3000282A002010B50446FFF798FF204601F031
:102A400056F9204610BD07B502AB012203F8011D5F
:102A50001946FFF7ADFF03B05DF804FB07B501228F
:102A60000DF10701FFF7C4FF9DF8070003B05DF803
:102A700004FB0A4601460020FFF79ABF0A460146BA
:102A80000020FFF7B5BF000010B511F0E5FA0CA368
:102A9000D3E9002311F084FC11F030FE0446C0F3AA
:102AA00007410620FFF7CFFFC4F307210720FFF7F8
:102AB000CAFFE1B20820BDE81040FFF7C4BF00BF65
:102AC0000000000080844E40144910B50A78044686
:102AD00090B932B901230B70114BDA681B681B04E3
:102AE00013600120FFF7BAFF00F0F8012143012035
:102AF000BDE81040FFF7A7BF094B2AB11A680020B4
:102B00000870D96812040A60032C1A6803D0DB68C5
:102B100012041A60E5E79B68FBE700BF042B002066
:102B2000D42900200120FFF7CFBF0020FFF7CCBF42
:102B300010B504460120FFF791FFC0F3C010844296
:102B400026D0012C13D0FFF7F0FF0120FFF786FFFE
:102B500000F07F010120FFF776FF00214020FFF702
:102B600072FF30214120BDE81040FFF76CBFFFF736
:102B7000DCFF2046FFF772FF60F07F01C9B22046FC
:102B8000FFF761FF00214020FFF75DFF0021E9E72B
:102B900010BD10B504460120FFF7CAFF2CB1342147
:102BA0003920BDE81040FFF74EBF1221F8E70000C2
:102BB0002DE9FF47594C054604F0B4FC012120469D
:102BC00000F000FC04F0C4FC2368E2681B041360FE
:102BD000012004F057FF04F0A5FC2046002100F07E
:102BE000F1FB04F0B5FC062004F04CFF2E784C4CB1
:102BF000042E1CD104F096FC0021204600F0E2FBDC
:102C000004F0A6FC012004F03DFF63681A68236805
:102C10001A4214BF0126002604F084FC204601213C
:102C200000F0D0FB04F094FC012004F02BFF23689B
:102C3000E2683C483C4C1B0413603C4B9A681B68A0
:102C400013600821002204F023F9394804F00CFF36
:102C50000020FFF739FF1022ACBB2146684606F082
:102C600095FA69463348344C04F021F86846FDF77C
:102C7000A9FF10227CBB2146684606F087FA694608
:102C80002E48DFF8C8802E4C04F011F86846FDF796
:102C900099FF4FF0030900235F1CDBB2D8F8002036
:102CA000B2FBF9F29A421ED903EB430304EB030A89
:102CB000E05CFFF73DFF9AF802109AF80100FFF779
:102CC000C2FE3B46E8E70021684606F05FFA1D4B6E
:102CD00000940393C5E70021684606F057FA194BA4
:102CE00000940393CBE76879174CFFF721FF95F821
:102CF0002800FFF74EFF4220FFF7B0FE38B920460C
:102D0000FFF742FE4FF07E5004F0AEFEF3E7A868F6
:102D1000FFF7BAFE304604B0BDE8F0870C2A002069
:102D2000D4290020282A002005260008F0290020A8
:102D3000CDCCCC3D34290020BD25000884290020BD
:102D4000936B0108405C0108C66B0108D0010020AC
:102D500073B5224D224C234E0A21284603F04CFF26
:102D60002846214D2246314600F054FE13212846C4
:102D700003F042FF2246314628461C4D00F04AFE31
:102D80004FF0FF330093062205230721284604F065
:102D9000D3F822461649284600F03CFE154B1C2469
:102DA00022461846002106F0F1F9162103F0DAFE5A
:102DB000114B22461846002106F0E8F9002103F0E5
:102DC000BEFE0E4B22460021184606F0DFF92121F7
:102DD00002B0BDE8704003F0B2BE00BF342900204D
:102DE000C8010020516C000884290020282A0020F6
:102DF0006D290008F02900200C2A0020D429002089
:102E00000FB407B5064B04AA1B6852F8041BD86818
:102E1000019208F0F7FC03B05DF804EB04B07047D2
:102E20007406002013B5084B0024CDE900340122BC
:102E3000082307212046FEF753FDFEF74DFD034B07
:102E40001C7002B010BD00BF2021F636052B0020FB
:102E500010B5044648B9FFF7E3F9FFF7E3FF084B65
:102E60001B682046BDE810401847012807D1FFF72E
:102E7000D7F9FFF7D7FF024B02201B68F2E710BD1E
:102E8000482B00202DE9F041884615461F469DF944
:102E9000186000283BD1202A03D92648FFF7B0FF4D
:102EA0002025254C2A464146204606F059F8234B5A
:102EB0001F80234B1E7026782746FEB9214BA4782D
:102EC0001B78A34201D0FF2C1BD1A4F1FF035C426D
:102ED0005C4101261C4B1B78ABB9FFF7A1F9FFF74A
:102EE000A1FF012E24D1194B787819492A1F1D689A
:102EF000D2B22346AC46BDE8F041604700242646E6
:102F0000E8E73446E6E71348FFF77AFFE9E70138D8
:102F100001280DD80C4B1B782BB9FFF781F9BDE8C0
:102F2000F041FFF77FBF0B48BDE8F041FFF768BFF6
:102F3000BDE8F081D36C0108062B0020522B002045
:102F4000502B0020542B0020052B00204C2B002060
:102F50000A2B0020186D01080A4B10B518700A4B97
:102F600019600A4B0A491A6004460A48FFF7D8F864
:102F7000094B00225C701A70FFF752F9BDE810404F
:102F8000FFF750BF542B0020482B00204C2B002073
:102F9000852E0008512E0008262B0020F7B5184F6B
:102FA0003C7834B117482146FFF72AFF012003B0CF
:102FB000F0BD1C2905D914482022FFF721FF03206A
:102FC000F5E7124D0E1DAA70F6B20A460146281DFD
:102FD0002C70EE7005F0C4FFFFF722F90C4A0823AD
:102FE000CDE900322146012307220E20FEF75CFEC8
:102FF00031462846FEF740FE01233B702046D6E7C7
:10300000052B0020E86B0108296C0108262B002005
:103010002021F636014BB3F900007047522B0020F7
:10302000014B93F900007047502B002010B5074B5F
:103030001C78012C05D106482146FFF7E1FE204609
:1030400010BD044B18700020FAE700BF052B0020CC
:10305000736C0108542B00200FB407B5064B0749C9
:103060001B6805AAD868019208F0CCFB03B05DF894
:1030700004EB04B0704700BF740600208D6D01089A
:1030800037B501460D480E4A037803EB83052A4401
:10309000545C012C06D00B4B2B445B5C0370204628
:1030A00003B030BD0848642202FB030000900748CB
:1030B00002FB01020648FFF7CFFFF0E7552B002087
:1030C000796D0108656D0108C8030020D401002056
:1030D0008D6D0108014B1878704700BF552B0020FB
:1030E000014B00221A707047552B002043692DE9CF
:1030F000F0410D46D907044628D58168334F8268D0
:10310000334E836833483940B94202EA060204BFAD
:103110000127A760B24203EA000304BF4FF48076A0
:10312000A660834204BF4FF48030A06027488142EC
:1031300005D027498A4202D0264A934206D1264B1F
:10314000264A1B6852F8250001219847E268636906
:10315000920708D09F0706D51F4B204A1B6852F8DC
:10316000250000219847A169626963698E070AD525
:10317000900508D5190406D5174B184A1B6852F854
:10318000250005219847A7696669626917F0040759
:1031900006F4806609D046B1120406D50E4B0F4ADC
:1031A0001B6852F825000721984763695FB156B143
:1031B0001B0408D5084B094A1B6852F82500022158
:1031C000BDE8F0411847BDE8F08100BF03000004EE
:1031D0000003000800000310602B0020582B002083
:1031E00000210148FFF782BF00640040FFF7F8BFED
:1031F000FFF7F6BF01210148FFF778BF00680040E4
:10320000FFF7F8BFFFF7F6BF30B5036891FAA1F4F6
:10321000B4FA84F491FAA1F10325B1FA81F16400C2
:1032200005FA04F4490023EA040302FA01F1194300
:10323000016030BD00B5002389B007286FD8DFE8F2
:1032400000F00413202D3A4754610093364B374861
:103250001A6B42F001021A631B6B03F00103009327
:10326000009B09B05DF804FB01932F4B30481A6BAB
:1032700042F002021A631B6B03F002030193019BED
:10328000EFE70293284B2B481A6B42F004021A63B3
:103290001B6B03F004030293029BE2E70393224BB0
:1032A00025481A6B42F008021A631B6B03F00803EF
:1032B0000393039BD5E704931B4B20481A6B42F002
:1032C00010021A631B6B03F010030493049BC8E7FE
:1032D0000593154B1A481A6B42F020021A631B6BB8
:1032E00003F020030593059BBBE706930E4B15489F
:1032F0001A6B42F040021A631B6B03F04003069303
:10330000069BAEE70793084B0F481A6B42F080020A
:103310001A631B6B03F080030793079BA1E70B481D
:1033200004F068FC00209CE70038024000000240E6
:103330000004024000080240000C0240001002405D
:103340000014024000180240001C02406070010896
:10335000431C10B5044604D176220649064803F002
:10336000CBFE2046002100F00DFE04F00F040120EA
:10337000A04010BD81700108DB70010870B50446E3
:103380004B1C0E46218216D0C1F30310FFF752FFEB
:1033900005463046FFF7DCFF238A074A656103F0E4
:1033A0000F03206052F82330A36105F11003183594
:1033B0006360A560E56070BD98730108B0F9100006
:1033C00000F078BE0A4619B981694069FFF71CBF51
:1033D0000122F9E74C23F0B54343224E224F1A1D38
:1033E000324400244FF0010E1E448C4205D10146A8
:1033F000BDE8F0401D4804F0FDBB33680EFA04F54B
:103400001D422BD0136B7D690EFA03F32B4225D09E
:10341000D2F818C07B61156805B3FA6833EA020276
:1034200003D1BA6833EA020214D10F4A916833EA31
:10343000010103D1D26833EA02020DD1DCF8102079
:10344000134214BF01210221094B28461B68BDE825
:10345000F04018470221F7E70121F5E70134043273
:10346000C3E700BF642B0020003C01401571010838
:10347000782D002006210846FFF7ACBF052108463D
:10348000FFF7A8BF01210420FFF7A4BF01210320FB
:10349000FFF7A0BF01210220FFF79CBF01210846D2
:1034A000FFF798BF01210020FFF794BF012910B555
:1034B00018D11B4C838952B1A26803F00F039940C5
:1034C0001143A160836843F00103836010BDA268CB
:1034D00003F00F03994022EA0101A160836823F001
:1034E0000103F2E70229F1D10D4983895AB1CC6871
:1034F00003F00F03012202FA03F32343CB60836836
:1035000043F00203E1E7CA6803F00F03012404FA61
:1035100003F322EA0303CB60836823F00203D4E7BA
:10352000003C0140B0F90C3099B270B501F00F06C3
:1035300006F00C0404F1804404F59C3401F003010E
:10354000A56889000F228A40C3F3031325EA020508
:103550008B402B43A3600F4B01221968B2401143EB
:1035600019608468E50742BF996811439960A10713
:1035700042BFD9680A43DA6090F90030002B08DBBB
:103580005909012203F01F0302FA03F3024A42F829
:10359000213070BD003C014000E100E02DE9F04F1A
:1035A00092464A1C85B080460C4666D000220392A3
:1035B000334A344F516C41F480415164526C02F4EF
:1035C00080420392039A04F00F090C2202FB097255
:1035D000C4F303105568062D47D8DFE805F0043A18
:1035E0003C3E40424400284E0193FFF723FE0C214D
:1035F00001FB09F17A1857F801E0244FA8F80C40B4
:103600004C21694301247B5892F90820C8F80450E2
:1036100004FA0EF44FF0000B1C4388F80020C8F8A1
:1036200008B07C50132101FB05E507EB8501019BE8
:103630004B60174BC861C3F800A0164BC1F834901B
:103640009B681032404643F82260FFF76BFF5846F4
:1036500010E0114EC8E7114EC6E7114EC4E7114EF7
:10366000C2E7114EC0E7114EBEE7114804F0C2FA9E
:103670004FF0FF3005B0BDE8F08F0846FAE700BF15
:103680000038024040710108A5340008642B002076
:10369000782D002000ED00E09D34000895340008EE
:1036A0008D340008853400087D3400087534000826
:1036B000EE7001088389184A03F00F03012110B549
:1036C00001FA03F39468DB431C409460D4681C4007
:1036D000D46014682340136090F90030002B0CDB99
:1036E0005A0903F01F0301FA03F320320B4941F892
:1036F0002230BFF34F8FBFF36F8F90F90030002B54
:1037000009DB5A09012103F01F0301FA03F36032B8
:10371000024941F8223010BD003C014000E100E0C8
:10372000838903F00F020C235343104A70B5446899
:10373000D658FFF7BFFF4C210D4A6143012000FA24
:1037400006F55058132303FB046320EA050050508C
:1037500002EB830000214160981D0C3302EB8000D6
:1037600002EB83034160596070BD00BF40710108E6
:10377000642B002008B503F07DF8002008BD000090
:1037800008B50A4B1B684BB103F0F0F904F0EFF8F1
:103790004FF47A72002311F021F808BD03F0BEF84F
:1037A0004FF47A73B0FBF3F008BD00BF7C2D00200E
:1037B00010B588B003F0B6FE052101A803F0D2F9D8
:1037C0000424039B019A1A60962004F05BF9019B84
:1037D000049A1B041360962004F054F9013CF0D1C4
:1037E0000424039B019A1A604FF4C87004F04AF94C
:1037F000019B049A1B0413604FF4C87004F042F953
:10380000013CEED1DCE7000070B50D46A0B00446E7
:1038100003F088FE2B4622468021684609F040FCD2
:10382000051E03DC03F094FE20B070BD094B1B683D
:1038300023B903220221084800F090FE064E00241E
:103840001DF804103046013401F06AF8A542F7D1A2
:10385000E8E700BFC42D00206C2F00200FB407B58F
:1038600004A951F8040B0191FFF7CEFF03B05DF8F6
:1038700004EB04B07047000008B502F0A9FF01F0A6
:10388000ADF802F095FF02F0A3FF024B01221A608F
:1038900008BD00BF7C2D0020002070470368012276
:1038A0001B6900211847036800221B69114618474D
:1038B00003681B69184703689B69184703689B6A7C
:1038C000184700290CBF6FF0180000207047012036
:1038D00070471120704770476FF01C0070476FF001
:1038E00015007047012070470020704770470000A6
:1038F000F8B5074E15460C468F18BC4205D014F893
:10390000011B304601F00CF8F7E72846F8BD00BF70
:103910006C2F002038B58DB215F0010405D0084891
:1039200000F098FD041C18BF0124EB0605D50448DF
:1039300000F0A6FD08B144F01004204638BD00BFD9
:103940006C2F002010B5044605F0B0FA204610BDDB
:1039500010B50C462AB1044800F0D0FF20700120B9
:1039600010BD104610BD00BF6C2F002038B51D469D
:10397000074B0360074B1B68044633B9064800F049
:10398000EDFD2946044800F0B1FD204638BD00BFDA
:103990007C720108C42D00206C2F0020002070478D
:1039A0000020704708B5012000F036F80C4A136873
:1039B00010B51844EFF30881884205D3094B0C2257
:1039C0001A604FF0FF3010BD07490C6824B1074959
:1039D000096821448842F1D21060184610BD00BF2A
:1039E00058060020342F0020902D0020942D002018
:1039F000074C08B523680546986804F049FC23681D
:103A0000D86804F045FC0DB1FFF7D2FEFEE700BF19
:103A1000740600200120704708B5FFF7E9FF012078
:103A20007047002105F002BD04F06CBC7047704780
:103A300008B5FFF7FBFF08BD08B5FFF7F8FF08BDA5
:103A400010B5037803F00303012B04460CD02BB10F
:103A500040F2A9520549064803F04EFB237843F093
:103A600002032370012010BD002010BDC4720108A4
:103A70001B73010810B5037803F00303022B0446FF
:103A800005D040F2B1520549054803F035FB2378D3
:103A900023F0030343F00103237010BDC472010837
:103AA000417301083F2870B504462FDC184D55F8C6
:103AB00020305A1C13D1022811DCFFF771FF034696
:103AC00058B92046FFF76AFF034630B9114E3378E4
:103AD000BFF35B8FDB0704D50F4B45F82430184646
:103AE00070BD3046FFF7ACFF0028F5D04FF41653F9
:103AF000032202210848FFF739FF3046FFF7BAFFDB
:103B0000064A07490448FFF785FFE5E70023E6E793
:103B100058050020802D00208C2D0020C801002099
:103B2000ED38000838B50546FFF7BCFF0B4B002405
:103B300043F8254030B904F071FA092303604FF0CF
:103B4000FF3038BD03685B699847051E04DA04F04E
:103B500065FA6D420560F2E7204638BD5805002041
:103B6000FFF7E0BF38B50C461546FFF79BFF38B9A5
:103B700004F054FA092303604FF0FF34204638BDA7
:103B800003682146DB682A469847041EF6DA04F0EB
:103B900045FA64420460EFE708B5131E06DA04F044
:103BA0003DFA162303604FF0FF3008BD04D0FFF745
:103BB000D9FF40EAE07008BD184608BD38B50C468C
:103BC0001546FFF76FFF38B904F028FA09230360A0
:103BD0004FF0FF34204638BD036821469B682A46D3
:103BE0009847041EF6DA04F019FA64420460EFE71D
:103BF000002A08B503DBBDE80840FFF7DFBF04F08B
:103C00000DFA162303604FF0FF3008BD10B5FFF723
:103C100049FF044628B904F001FA0923036020464D
:103C200010BD0368DB699847041EF8DA04F0F6F962
:103C3000644204600024F2E71FB504220C464023CE
:103C40000DEB020101900DF109008DF8083005F02F
:103C500087F9214602A804F0E3FC044630B101983C
:103C6000FFF7D4FF10B12046FFF7DBFE204604B07B
:103C700010BDFFF7CBBF38B50C461546FFF712FF56
:103C800038B904F0CBF9092303604FF0FF34204624
:103C900038BD036821461B692A469847041EF6DA98
:103CA00004F0BCF964420460EFE7FFF7E4BF38B505
:103CB0000D46FFF7F7FE044630B904F0AFF90923CB
:103CC00003604FF0FF3038BD0368DB699847002878
:103CD00014BF4FF400534FF400436B602368204639
:103CE0009B6A98472861002038BDFFF7E0BF05F0C8
:103CF000DDB80000034610B553F8042B044602B9A2
:103D0000036022689A4204D05E220349034803F00C
:103D1000F3F9206810BD00BF007201085F7201084E
:103D200010B504460948FFF7E5FF0023084A194685
:103D300052F82300A04208BF42F823100133402B61
:103D4000F6D10248FFF7D6FF10BD00BF842D00203A
:103D50005805002010B50F48FFF7CCFF0E4B032489
:103D600053F824206AB10134402CF9D104F056F9FB
:103D7000182303600748FFF7BDFF4FF0FF342046CC
:103D800010BD4FF0FF32034843F82420FFF7B2FF85
:103D9000F5E700BF842D00205805002010B504462B
:103DA000FFF7D8FF0028A4BF014B43F8204010BD07
:103DB0005805002070B506460C46FFF7EFFF054694
:103DC00090B12146FFF738FF044630B9074B53F84E
:103DD0002520964203D143F82500204670BD04F00B
:103DE0001DF909230360F8E70446F6E758050020AB
:103DF0000EB42DE9F04185B00546FFF7ABFF041E78
:103E000013DB0023294602A8019303F0C7FD02A893
:103E100003F016FE1B4D064668B904F0FFF81323A5
:103E2000036045F824604FF0FF34204605B0BDE83C
:103E3000F04103B0704702A803F0F0FD074602A866
:103E400037B103F0F4FD0190019B45F82430ECE715
:103E500003F0DBFD06460028DFD0036802A8D3F894
:103E6000088003F0C7FD0B9B024601A93046C047FE
:103E700006460028E8D004F0D1F87642066045F8FE
:103E80002470D0E75805002073B50E461849054642
:103E900005F0FAFB044620B9FFF704FE204602B005
:103EA00070BD1449284605F0EFFB20B90120FFF74B
:103EB000F9FD0124F2E71049284605F0E5FB20B999
:103EC0000220FFF7EFFD0224E8E72B78402B07D113
:103ED0000422691C0DEB020005F042F8019CDDE7AD
:103EE00026F400412846FFF783FF0446D6E700BFCB
:103EF000887301088F730108807301087047704749
:103F0000074B08499A68084810B5043A52F8044F1C
:103F100041F8044F8142F9D14FF000529A6010BD30
:103F200000ED00E0FCFFFF1FC001002008B5FFF717
:103F3000E7FFFFF7A1FCFFF7E2FF08BD08B5FFF7B9
:103F4000DDFFBDE80840FCF7B7B930B5C36891FAAA
:103F5000A1F4B4FA84F491FAA1F10325B1FA81F144
:103F6000640005FA04F4490023EA040302FA01F1AB
:103F70001943C16030BD012A02D0022A18BF0022B5
:103F8000FFF7E3BF2DE9F0410E46411C044604D182
:103F90003E224449444803F0AFF804F00F08434B75
:103FA000C4F3031053F82850FFF744F906F007074D
:103FB0000446836895FAA5F1B1FA81F195FAA5F264
:103FC0000320490000FA01F1B2FA82F223EA010368
:103FD0005200022101FA02F21343A36087425AD829
:103FE000DFE807F05E1D021DB8F1070FC6F30320DE
:103FF0003BD9626A2B0A93FAA3F1B1FA81F193FAE1
:10400000A3F34FF00F0EB3FA83F389000EFA01F118
:104010009B0022EA010200FA03F3134363623B466A
:10402000226895FAA5F0B0FA80F095FAA5F14FF064
:10403000030EB1FA81F140000EFA00F0490022EAC5
:1040400000028B40013F1343012F236005D86368B2
:1040500032074CBF2B43AB436360C6F301122946C2
:104060002046BDE8F041FFF786BF226A95FAA5F326
:10407000B3FA83F395FAA5F14FF00F0EB1FA81F17F
:104080009B000EFA03F3890022EA030200FA01F30F
:1040900013432362C3E767220249054803F02CF863
:1040A0000023BDE7D8730108DB700108987301088D
:1040B000CF7A0108431C70B506460D4604D188220C
:1040C0001B491C4803F018F806F00F021A4BC6F300
:1040D000031053F82240FFF7ADF804FB04F2016827
:1040E00002EB42030B40B3FBF2F3013B012B05D87B
:1040F000EB1E022B436809D823434360032D08D1EC
:1041000001222146BDE87040FFF735BF23EA0403D2
:104110004360012DF4D0052D01D0022D01D10222E2
:10412000EFE721460022BDE87040FFF70EBF00BF59
:10413000D8730108DB7001089873010870B5A6B048
:104140003422002102A805F021F85C2200210FA8EA
:1041500005F01CF82A4B1D68002D4FD1294C019504
:1041600001261E60236C43F080532364236C03F00C
:1041700080530193019B00F05DFC042302A802938D
:104180000895049600F0C0FF10B11F4803F032FDFF
:10419000A36823F4F813A360A36823F4F813A360BF
:1041A000236F43F48073236720230F930FA84FF4EA
:1041B00080731F9300F058FD10B1144803F01AFDEE
:1041C000134B144801221A60134B0360032200238F
:1041D000826041F6FF7243774360C26003614361CE
:1041E000836101F05EF910B10C4803F003FD09484A
:1041F00001F089FA10B10A4803F0FCFC26B070BD4A
:10420000A02D0020003802403074010850740108CD
:104210003C0E4742A42D002000280040797401087C
:1042200093740108F0B51F4B1F491C681F4A5D6855
:104230008BB00C4015401E460F461868084084425B
:104240002BD158681040854227D105F03F0001F07E
:1042500051FA0490C5F3042001F04CFA013805909E
:10426000280C01F047FA44300690C4F3054001F0F1
:1042700041FA0390C4F3062001F03CFA029004F0E6
:104280007F0001F037FA01220190694601A802F08F
:1042900051FF00B100980BB0F0BD346875683C4028
:1042A0001540CAE7002800407F7F7F003FFFFF00E6
:1042B000024BD868C0F30010704700BF00280040D0
:1042C000214B224A2DE9F0411D691C689E6AC5F305
:1042D0000E05144018461746196811408C422ED11D
:1042E000996A8E422BD1C4F3054001F003FA0746C8
:1042F000C4F3062001F0FEF9804604F07F0001F0CF
:10430000F9F9134A13493C2313FB08004FF4616386
:1043100003FB07001368146898420B683CBF03F561
:10432000A83303F5C0731B1B03440B6010600868BF
:10433000013DC00305EB9000801BBDE8F0810468DF
:10434000866A3C40C8E700BF002800407F7F7F00AE
:104350009C2D0020982D002030B591B00021142212
:10436000044602A8019104F011FF03F0DBF82A4B88
:104370002A4A1A6007A90122204602F02BFF0028D2
:1043800048D00D9B03B907238DF804300B9B0133F4
:104390008DF805300A9B8DF806300C9B443B8DF858
:1043A0000730099B8DF80830089B8DF809300024F0
:1043B000079B8DF80A308DF80B4005940694FFF7A3
:1043C0007FFF9DF809109DF80A2013483C2313FB3A
:1043D00001229DF808304FF4616101FB0323104A6C
:1043E00013600E4B224601A99D6A01F0B3F810B18B
:1043F0000C4803F0FFFB002202A9074801F00AF96C
:1044000010B1094803F0F6FB044A936A9D42FCD1BF
:1044100003F09EF811B030BDA42D0020002800400C
:104420009C2D0020AC740108C37401080FB407B5BB
:10443000064B07491B6805AAD868019207F0E2F904
:1044400003B05DF804EB04B0704700BF74060020B1
:10445000DA7401084368094A9B0182B0D3581A688C
:10446000120706D5002201921A6801925A68019239
:10447000019A1868C0F3401002B07047B82F0020AE
:104480004368034A9B01D3581868C0F3C0107047B3
:10449000B82F002042681449920110B404685450A7
:1044A000531882685A60C2689A600269DA60426989
:1044B0001A61026A9A610022DA84DA619A84DA85E2
:1044C0009A85B0F91A20013206D108225A6118469D
:1044D0005DF8044B01F0B1BEB0F9182001320CBFF9
:1044E00004220C22F2E700BFB82F002010B5816033
:1044F0000C46FFF7CFFF28B121460348BDE8104026
:10450000FFF794BF10BD00BFDA740108124B984248
:1045100017D0A3F54C43984215D003F58063984219
:1045200013D003F58063984211D003F5806398425D
:104530000FD003F5444398420CBF05204FF0FF30E5
:104540007047002070470120704702207047032009
:1045500070470420704700BF00100140F0B50E46C0
:1045600087B004465B493046154602F037FC5A498D
:104570000746284602F032FC0146384602F008FCA5
:104580002060013004D13D225449554802F0B4FD69
:10459000022E0CD0032D0AD04E49022002F01EFC40
:1045A000874202D14F4803F025FB002700E0012796
:1045B0004D4B206898424FF000031AD100934B4BAB
:1045C0005A6C42F010025A645B6C03F010030093C3
:1045D000009B474B984229D100230593434B5A6CCB
:1045E00042F020025A645B6C03F020030593059BA4
:1045F0001CE0404A90420BD101933C4B1A6C42F4B0
:1046000000321A641B6C03F400330193019BE0E752
:10461000394A904240D10293344B1A6C42F48022C2
:104620001A641B6C03F480230293029BFFF76EFF56
:104630000028606004DAA4222849304802F05CFDBA
:104640002449304602F080FB2349284602F07CFBD7
:10465000721C03D001213046FFF72CFD6B1C03D0E8
:1046600001212846FFF726FD4FF41653A3600023CF
:10467000E360236163612362268365832046FFF73D
:1046800009FF3FB11E4B1F4801221A6021464C22F0
:1046900004F066FC07B0F0BD1B4A90420BD10393B7
:1046A000124B1A6C42F400221A641B6C03F40023B0
:1046B0000393039BBAE7154A90428AD104930B4BAC
:1046C0001A6C42F480121A641B6C03F48013049376
:1046D000049BABE7E86F0108706F010804750108DF
:1046E000607501087C750108001001400038024027
:1046F000001401400044004000480040B17501082A
:10470000C42D00206C2F0020004C004000500040C1
:10471000002808DB4209012300F01F0003FA00F023
:10472000014B43F82200704700E100E000280DDB58
:104730004309012200F01F0002FA00F02033044A6E
:1047400042F82300BFF34F8FBFF36F8F704700BF56
:1047500000E100E0F7B5FFF7D9FE071E26DB144E97
:1047600056F8270010B3134CBD0163591A6812069E
:1047700006D5DB68190603D50F4B01211B68984746
:1047800063591A68920608D5DB68980605D50A4B66
:1047900056F827001B680021984763591A681107CB
:1047A00004D55A69D20744BF5B68019303B0F0BDDA
:1047B000CC2D0020B82F0020C82D00200148FFF785
:1047C000C9BF00BF001401400148FFF7C3BF00BFCD
:1047D000005000400148FFF7BDBF00BF004C004043
:1047E0000148FFF7B7BF00BF004800400148FFF78E
:1047F000B1BF00BF004400400148FFF7ABBF00BF9E
:1048000000100140034B19604168034B43F821201D
:10481000704700BFC82D0020CC2D002030B490E898
:1048200018002C48834233D00AD8A0F50060834298
:1048300028D000F58060834227D0002318460FE07F
:10484000254883420AD000F58060834223D0A0F53A
:1048500044408342F1D1214B352001E0204B2520FB
:10486000204DA401FAB1C9B92959CA6842F0200201
:10487000CA601D4A00F11001926830BC42F8213034
:10488000FFF746BF194B2620EAE7194B2720E7E739
:10489000184B3420E4E7184B4720E1E72959CA6850
:1048A00042F08002E4E72B59DA6849B922F020028D
:1048B000DA60DB6813F0800F09D130BCFFF736BF38
:1048C00022F08002DA60DB6813F0200FF4E730BCDE
:1048D000704700BF004C004000100140C94700086D
:1048E000F9470008B82F002000ED00E0ED47000870
:1048F000E1470008D5470008BD47000838B54468BF
:1049000005462846FFF7A6FD0028FAD0A401034B70
:104910001B595868C0F3080038BD00BFB82F0020ED
:1049200070B5456806460C463046FFF7A9FD0028DD
:10493000FAD0AD01024B5B59C4F308045C6070BD52
:10494000B82F002008B50E4AC36D934214D008D882
:10495000A2F5806293420FD00A4803F04BF9002081
:1049600008BD094A934203D002F580629342F3D115
:10497000BDE8084000F04AB9BDE8084000F036B98B
:10498000003C0040C375010800300140DFF830D022
:10499000002103E00B4B5B58435004310A480B4B9A
:1049A00042189A42F6D30A4A02E0002342F8043B36
:1049B000084B9A42F9D301F01FFEFBF727FC704722
:1049C0000000022060840108C80100204810002077
:1049D0004810002080310020FEE7704708B50B4BDF
:1049E0001A6842F400721A601A6842F480621A600F
:1049F0001A6842F480721A60032000F009F80F2050
:104A0000FEF7B8FEFFF7E9FF002008BD003C0240BA
:104A1000074AD36823F4E0631B041B0C43F0BF6315
:104A2000000243F4003300F4E0600343D3607047B6
:104A300000ED00E0014B01221A60704720000E4299
:104A400037B500230193184B184C1A6C42F0805272
:104A50001A641B6C03F080530193019B144B0122D9
:104A60001A60FEF78DFE05466368DA030BD5114B1D
:104A70000E4C01221A60FEF783FE054663689B0315
:104A80000AD5002006E0FEF77BFE401BB0F57A7FDA
:104A9000EAD9032003B030BDFEF772FE401BB0F52B
:104AA0007A7FEBD9F5E700BF003802400070004084
:104AB00040000E4244000E422DE9F0410D460446EE
:104AC00010B90120BDE8F081444B1A6802F00F02D2
:104AD0008A4228D321688F072DD4C80740D43F4B82
:104AE0001A6802F00F02954266D3226851076CD40F
:104AF000130707D53A4A2169936823F4604343EAD0
:104B0000C103936000F0B8FA354B364A9B68C3F393
:104B10000313D35CD840344B18600F20FEF72AFEF5
:104B20000020BDE8F081CAB21A701B6803F00F03C1
:104B30009942C6D1CEE72A4B11F0040F1EBF9A68E6
:104B400042F4E0529A600E0742BF9A6842F4604213
:104B50009A609A68A06822F0F00202439A60BCE76B
:104B600062681F4B012A1DD11B6813F4003FA8D0B7
:104B70001B4EB36823F003031343B360FEF700FE3C
:104B800041F288380746B368626803F00C03B3EB60
:104B9000820FA4D0FEF7F4FDC01B4045F3D90320DB
:104BA000BDE8F081911E01291B6802D813F0007F37
:104BB000DDE713F0020FDAE7EAB21A701B6803F0C0
:104BC0000F039D427FF47DAF8FE70549E0688B6856
:104BD00023F4E05303438B608AE700BF003C0240AC
:104BE00000380240C97601085C060020044B054AE3
:104BF0009B68C3F38223D35C034A1068D840704794
:104C000000380240D97601085C060020044B054AB2
:104C10009B68C3F34233D35C034A1068D8407047A3
:104C200000380240D97601085C0600200F2303609B
:104C30000B4B9A6802F0030242609A6802F0F0029D
:104C400082609A6802F4E052C2609B68DB0803F459
:104C5000E0530361034B1B6803F00F030B607047C5
:104C600000380240003C024003682DE9F74313F08E
:104C7000010604460BD0AA49866BD1F88C2022F09D
:104C8000C0623243B6FA86F6C1F88C2076099D07D9
:104C90000BD5A348E16BD0F88C2022F0C0520A4318
:104CA0000029C0F88C2008BF012613F0040512D09B
:104CB0009B49256BD1F88C20B5F5801F22F440125A
:104CC00042EA050218BFB5FA85F5C1F88C2012BF7B
:104CD0006D090025012618070FD59148616BD0F8A2
:104CE0008C2022F440020A43B1F5800FC0F88C20DA
:104CF00000F00981002908BF0125990633D500235A
:104D00000193874B874F1A6C42F080521A641B6CD8
:104D100003F080530193019B3B6843F480733B6035
:104D2000FEF72EFD80463B68DA0540F1EE807C4FB1
:104D30003B6F13F4407340F0FB80236C03F440722C
:104D4000B2F5407F764A40F01681916823F07040BA
:104D500021F4F81120F4407001439160116FC3F306
:104D60000B030B4313672368D90642BF6E4B94F8BD
:104D700058201A6023681A0608D56949E06CD1F8F2
:104D8000942022F440020243C1F894205F0608D523
:104D90006349A06CD1F8942022F080620243C1F8EC
:104DA0009420D8050CD55E48616DD0F8942022F08F
:104DB00000620A43B1F1006FC0F8942008BF0125DA
:104DC000990508D55649606CD1F8942022F080529C
:104DD0000243C1F894205A0500F1D180012E40F021
:104DE000DC80524E4E4F00233360FEF7C9FC8046F4
:104DF0003B681B0100F125812268D00701D5A36B18
:104E00001BB1910715D5E36B9BB94549D1F88430A7
:104E1000D1F8840003F4403300F07060034360680D
:104E20000343A06843EA8013606943EA0073C1F852
:104E30008430530703D5236BB3F5801F05D01707C4
:104E400020D5636BB3F5800F1CD13549D1F8843080
:104E5000D1F8840003F4403300F0E040034360687D
:104E60000343A06843EA8013206943EA0063C1F862
:104E70008430D1F88C00A36A20F01F00013B03436B
:104E8000C1F88C3050051BD5236DB3F1005F17D1ED
:104E900023486768D0F88410D0F8843003F0E043EA
:104EA0003B43A768C1F30141013143EA871343EA59
:104EB0004163E1684908013943EA0143C0F884309D
:104EC000110511D52369A2681B0643EA82136268A3
:104ED0001343626943EA0273E2685208013A43EA03
:104EE00002430F4AC2F8843001233360FEF748FCC6
:104EF0000B4E074633681A0153D4FEF741FCC01B22
:104F00000228F7D908E00126F7E6FEF739FCA0EB06
:104F1000080002287FF607AF032003B0BDE8F08346
:104F20000038024000700040E011474268004742EC
:104F3000226C02F4407293423FF4FFAE3B6F4B4A47
:104F40000121116023F44073002111603B673B6F26
:104F5000DB077FF5F2AEFEF713FC41F2883980469D
:104F60003B6F98073FF5E9AEFEF70AFCA0EB08009F
:104F70004845F5D9D0E7916821F4F811EDE63C48B1
:104F8000216DD0F8942022F000520A43B1F1005F65
:104F9000C0F894207FF422AF23E7B3F5006F3FF40D
:104FA00020AF012D4BD1334D314E00232B60FEF746
:104FB000E7FB074633689B004BD421684E0701D5B9
:104FC000236B1BB108071AD5636BC3B9284AA069C4
:104FD000D2F8883003F440330343E06943EA801396
:104FE000606A43EA0063C2F88830D2F88C30E06A25
:104FF00023F4F853013843EA0023C2F88C30CA0581
:1050000014D5636DB3F1006F10D11949A269D1F8BD
:10501000883003F070631343E26943EA8213226A23
:105020005208013A43EA0243C1F8883001232B6059
:10503000FEF7A6FB0E4C054623689B000FD500200B
:105040006BE7FEF79DFBA0EB080002287FF6D0AED1
:1050500062E7FEF795FBC01B0228ABD95CE7FEF7C1
:105060008FFB401B0228E7D956E700BF400E47429E
:105070000038024070004742204908B58B6803F0B1
:105080000C03082B07D00C2B20D01D4A1D48042BE5
:1050900018BF104608BD4A684B68496813F480037E
:1050A00014BF18481648C1F3881118BF002302F036
:1050B0003F02A1FB00010FF091FB104B5B68C3F3B3
:1050C000014301335B00B0FBF3F008BD4A684B6855
:1050D000496813F4800314BF0A480948C1F38811D2
:1050E00018BF002302F03F02A1FB00010FF076FB86
:1050F000024B5B68C3F30273E5E700BF0038024070
:105100000024F40000127A0003682DE9F341DF0760
:10511000044610D423689E0767D423681A0700F159
:10512000B28023685B0700F1D080A269002A40F0BA
:10513000398100201EE0974B9A6802F00C02042A85
:1051400010D09A6802F00C02082A02D15B685D0256
:1051500008D4904B9A6802F00C020C2A0DD15A68C0
:1051600050020AD58B4B1B689903D3D56368002B7B
:10517000D0D1012002B0BDE8F0816268B2F5803F75
:1051800011D11A6842F480321A60FEF7F9FA814DA3
:1051900006462B689A03BDD4FEF7F2FA801B6428FA
:1051A000F7D90320E6E77B4DB2F5A02F2B6807D196
:1051B00043F480232B602B6843F480332B60E4E7B7
:1051C00023F480332B602B6823F480232B60002A88
:1051D000DBD1FEF7D5FA06462B689B039AD5FEF77E
:1051E000CFFA801B6428F7D9DBE76A4B9A6812F084
:1051F0000C0F10D09A6802F00C02082A02D15B68EA
:105200005F0208D5634A936803F00C030C2B11D19D
:1052100053685E020ED45F4B1A68950702D5E268A8
:10522000012AA6D11A68216922F0F80242EAC102D5
:105230001A6072E7E268584BB2B101221A60FEF7B9
:105240009FFA544D06462B68980707D52B682269AC
:1052500023F0F80343EAC2032B605EE7FEF790FAFF
:10526000801B0228EFD99CE71A60FEF789FA494DA6
:1052700006462B6899077FF550AFFEF781FA801B31
:105280000228F6D98DE76269444B7AB101221A608F
:10529000FEF776FA3F4D06466B6F9F073FF541AF2D
:1052A000FEF76EFA801B0228F6D97AE71A60FEF73D
:1052B00067FA384D06466B6F98077FF532AFFEF7F9
:1052C0005FFA801B0228F6D96BE7324B1A6C12F09A
:1052D000805228D101921A6C42F080521A641B6CE1
:1052E00003F080530193019B01262D4D2B68D905B6
:1052F0001BD5A368274D012B27D12B6F43F001034A
:105300002B67FEF73DFA234D074641F288382B6F95
:105310009B0739D5002E3FF408AF1E4A136C23F0CB
:105320008053136401E70026DFE72B6843F48073A2
:105330002B60FEF725FA07462B68DA05D9D4FEF76D
:105340001FFAC01B0228F7D92BE7052B04D12B6FBE
:1053500043F004032B67D0E72A6F22F001022A678B
:105360002A6F22F004022A67002BCAD1FEF708FA3E
:1053700041F2883807462B6F9807CBD5FEF700FA25
:10538000C01B4045F7D90CE7FEF7FAF9C01B4045B2
:10539000BDD906E70038024000004742800E474270
:1053A00000700040234DAB6803F00C03082B3FF462
:1053B000E0AE214E0023022A33602DD1FEF7E0F942
:1053C00007462B68990121D4226AE3691343626A74
:1053D00043EA8213E26A43EA0263226B43EA0273FE
:1053E000A26A144C5208013A43EA02436B6001235B
:1053F0003360FEF7C5F9054623689A013FF599AE7B
:10540000FEF7BEF9401B0228F6D9CAE6FEF7B8F946
:10541000C01B0228D5D9C4E6FEF7B2F904462B68B2
:105420009B017FF586AEFEF7ABF9001B0228F6D98B
:10543000B7E600BF0038024060004742704702688C
:1054400038B5D36823F0A003D3600446FEF798F97B
:1054500005462368DB689B0601D5002038BDFEF7B2
:105460008FF9401BB0F57A7FF3D9032038BD38B5EA
:105470000368DA685206044601D5002038BD4FF0B3
:10548000FF32DA60FEF77CF905462368DB685B06CD
:10549000F3D4FEF775F9401BB0F57A7FF5D90320F8
:1054A00038BD38B50446B8B1437F03F0FF0213B9E5
:1054B0000277FFF7C3FF022363772368CA225A6289
:1054C00053225A622046FFF7D2FF2368054628B1CF
:1054D000FF225A620423637701252EE09A6820692F
:1054E00022F4E00222F040029A6062689968024366
:1054F000606902430A439A60E2681A611A69A16806
:1055000042EA01421A61DA6822F08002DA609B689E
:105510009B0605D42046FFF792FF08B12368D7E722
:105520002368A1691A6C22F480221A641A6C0A4357
:105530001A64FF225A6201236377284638BD00238C
:10554000092803D840EA0310C0B270470A38013373
:10555000C0B2F5E7F8B5037F012B05464FF0020610
:1055600030D00123037746774B78C8788E780C7853
:10557000002A48D1DA0603D523F010030A334B7012
:10558000FFF7DDFF07464878FFF7D9FF02463046B0
:10559000FFF7D5FF40EA443040EA074040EA0224E2
:1055A0002B68CA225A6253225A622846FFF75FFFCD
:1055B0002B68064640B1FF225A6204236B77002312
:1055C0002B7701263046F8BD24F07F4424F0C00438
:1055D0005C60DA6822F08002DA609B689B060AD47D
:1055E0002846FFF72CFF30B12B68FF225A620423B4
:1055F0006B772E77E5E72B68FF225A6201236B77E2
:1056000000232B77DEE71B0243EA0040304340EAE9
:105610004434C5E7F8B5037F012B06460F464FF02B
:1056200002052FD0012303770368457708784D786A
:105630008C789B6842BB13F0400308BFCB70FFF728
:105640007EFF01462846FFF77AFF02462046FFF715
:1056500076FFFB7840EA034040EA014040EA02243A
:105660003368CA225A6253225A623046FFF7FFFE5D
:1056700033680546A8B1FF225A62042373770023DA
:10568000337701252846F8BD13F040034FEA05257E
:1056900008BFCB7045EA00402043CC7840EA044480
:1056A000DEE704F07F3424F0FE441C609A68386919
:1056B00022F480229A60FA68996802430A439A6049
:1056C000DA6822F08002DA609B689B060AD43046D2
:1056D000FFF7B5FE30B13368FF225A6204237377B7
:1056E0003577CEE73368FF225A62012373770023B0
:1056F0003377C7E7030903EB830300F00F0000EBE8
:105700004300C0B27047037F012B4FF002030FD05C
:1057100043770368CA225A6253225A629A6842F057
:1057200020029A60FF225A62012343770023037705
:105730001846704703685A6822F0E0025A604268CF
:10574000B2F5827F0AD18268B2F5004F02D0B2F57D
:10575000806F03D11A6822F040021A60826AB2F5A3
:10576000005F09D11A6822F400521204120C1A6068
:105770001A6842F400521A60012380F85130002365
:1057800080F850300320704770B505460C46164629
:1057900029688B689B0701D5002070BD621CF8D07A
:1057A00024B92846BDE87040FFF7C4BFFDF7E8FF05
:1057B000801B8442ECD8F4E72DE9F041DDF8188035
:1057C00005460F4616461C462B6898683840B0427E
:1057D00002D10020BDE8F081621CF6D024B9284631
:1057E000BDE8F041FFF7A6BFFDF7CAFFA0EB080038
:1057F0008442E9D8F3E713B50B46009280210022DA
:105800000446FFF7D9FF20B1636D43F020036365C1
:10581000032002B010BD704738B5044600283BD0C5
:1058200090F8513003F0FF021BB980F85020FFF7C9
:10583000F2FF2168A568A06AA269022384F85130AA
:105840000B6823F040030B6063682B43E5682B4330
:1058500025692B4365692B43E5692B43256A2B4357
:10586000034302F400752B430B60120C636AB0F51E
:10587000005F02F0040242EA030208BFE36A4A60E2
:1058800008BF0B61CB6923F40063CB6100200123C7
:10589000606584F8513038BD012038BD2DE9F341F1
:1058A0001E4690F85030012B04460D46904600F0FD
:1058B000BA80012380F85030FDF762FF074694F864
:1058C0005100C0B2012840F0AC80002D5FD0B8F18B
:1058D000000F5CD0032384F8513000236365A36379
:1058E000A4F83680A387E38763642364A3682268EF
:1058F0002563B3F5004F08BF1368A4F8348004BFD4
:1059000043F480431360A36AB3F5005F09D11368C1
:1059100023F400531B041B0C1360136843F400535F
:10592000136013685B065EBF136843F040031360A7
:10593000E368B3F5006F63683AD11BB1E38E9BB2A5
:10594000012B06D135F8023BD360E38E013B9BB2BD
:10595000E386E38E9BB283B93A4631462046FFF791
:1059600013FF98B93A4631462046FFF744FF002816
:1059700040D020236365012009E023689A689007DE
:1059800003D535F8022BDA60DFE74EB90320012397
:1059900084F85130002384F8503002B0BDE8F08123
:1059A000711CD6D0FDF7ECFEC01B8642D1D8EDE7C6
:1059B0001BB1E38E9BB2012B06D115F8013B13738B
:1059C000E38E013B9BB2E386E38E9BB2002BC3D0F8
:1059D00023689A68920703D515F8012B1A73EFE72D
:1059E000002ED3D0731CEFD0FDF7CAFEC01B864239
:1059F000EAD8CBE7A36833B901932368DA68019248
:105A00009B680193019BA36AB3F5005F01BF226805
:105A1000136843F480531360606D003018BF012099
:105A2000B5E70220B3E70220B7E72DE9F04385B0E0
:105A300099460023ADF80A3090F850300C9E012BA7
:105A400004460D46904600F04581012380F8503011
:105A5000FDF796FE94F851306168DBB2012B0746E2
:105A60000AD0B1F5827F40F03381A268002A40F06D
:105A70002F81042B40F02C81002D00F01B81B8F108
:105A8000000F00F01781B9F1000F00F0138194F8B6
:105A90005130C4F83880012B04BF052384F85130FD
:105AA0000023636523646364A36AA4F83E90B3F59E
:105AB000005FA4F83C902563A4F83690A4F83490D5
:105AC000236809D11A6822F400521204120C1A60D9
:105AD0001A6842F400521A601A6850065EBF1A68CB
